{
  "contractName": "GenesisProtocolUtil",
  "abi": [
    {
      "constant": true,
      "inputs": [
        {
          "name": "_params",
          "type": "uint256[11]"
        },
        {
          "name": "_voteOnBehalf",
          "type": "address"
        }
      ],
      "name": "getParametersHash",
      "outputs": [
        {
          "name": "",
          "type": "bytes32"
        }
      ],
      "payable": false,
      "stateMutability": "pure",
      "type": "function"
    }
  ],
  "bytecode": "0x608060405234801561001057600080fd5b50610290806100206000396000f3fe608060405234801561001057600080fd5b506004361061002b5760003560e01c806307b4e1e314610030575b600080fd5b6100b5600480360361018081101561004757600080fd5b81019080806101600190600b806020026040519081016040528092919082600b60200280828437600081840152601f19601f8201169050808301925050505050509192919290803573ffffffffffffffffffffffffffffffffffffffff1690602001909291905050506100cb565b6040518082815260200191505060405180910390f35b6000826000600b81106100da57fe5b6020020151836001600b81106100ec57fe5b6020020151846002600b81106100fe57fe5b6020020151856003600b811061011057fe5b6020020151866004600b811061012257fe5b6020020151876005600b811061013457fe5b6020020151886006600b811061014657fe5b6020020151896007600b811061015857fe5b60200201518a6008600b811061016a57fe5b60200201518b6009600b811061017c57fe5b60200201518c600a600b811061018e57fe5b6020020151604051602001808c81526020018b81526020018a81526020018981526020018881526020018781526020018681526020018581526020018481526020018381526020018281526020019b5050505050505050505050506040516020818303038152906040528051906020012082604051602001808381526020018273ffffffffffffffffffffffffffffffffffffffff1673ffffffffffffffffffffffffffffffffffffffff1660601b8152601401925050506040516020818303038152906040528051906020012090509291505056fea165627a7a723058204cd58c3f8bec1b094d41334d106a59f311e7f44e6ff024097a662b1315ddfb970029",
  "source": "pragma solidity ^0.5.4;\n\ncontract GenesisProtocolUtil {\n    function getParametersHash(\n        uint[11] memory _params,//use array here due to stack too deep issue.\n        address _voteOnBehalf\n    ) public pure returns(bytes32) {\n        //double call to keccak256 to avoid deep stack issue when call with too many params.\n        return keccak256(\n            abi.encodePacked(\n            keccak256(\n            abi.encodePacked(\n                _params[0],\n                _params[1],\n                _params[2],\n                _params[3],\n                _params[4],\n                _params[5],\n                _params[6],\n                _params[7],\n                _params[8],\n                _params[9],\n                _params[10])\n            ),\n            _voteOnBehalf\n        ));\n    }\n}\n\n",
  "sourcePath": "/Users/edsonayllon/Documents/GitHub/Alchemy-DAO-Scheme-Param-Hash-Generator/blockchain/contracts/GenesisProtocolUtils.sol",
  "compiler": {
    "name": "solc",
    "version": "0.5.8+commit.23d335f2.Emscripten.clang"
  },
  "schemaVersion": "3.0.16",
  "updatedAt": "2019-09-28T03:01:51.315Z",
  "devdoc": {
    "methods": {}
  },
  "userdoc": {
    "methods": {}
  }
}